{
  "contractName": "TodoList",
  "abi": [
    {
      "constant": true,
      "inputs": [],
      "name": "maxAmountOfTodos",
      "outputs": [
        {
          "name": "",
          "type": "uint256"
        }
      ],
      "payable": false,
      "stateMutability": "view",
      "type": "function"
    },
    {
      "constant": true,
      "inputs": [
        {
          "name": "",
          "type": "address"
        },
        {
          "name": "",
          "type": "uint256"
        }
      ],
      "name": "todos",
      "outputs": [
        {
          "name": "id",
          "type": "uint256"
        },
        {
          "name": "content",
          "type": "bytes32"
        },
        {
          "name": "owner",
          "type": "address"
        },
        {
          "name": "isCompleted",
          "type": "bool"
        },
        {
          "name": "timestamp",
          "type": "uint256"
        }
      ],
      "payable": false,
      "stateMutability": "view",
      "type": "function"
    },
    {
      "constant": true,
      "inputs": [
        {
          "name": "",
          "type": "address"
        }
      ],
      "name": "lastIds",
      "outputs": [
        {
          "name": "",
          "type": "uint256"
        }
      ],
      "payable": false,
      "stateMutability": "view",
      "type": "function"
    },
    {
      "constant": false,
      "inputs": [
        {
          "name": "_content",
          "type": "bytes32"
        }
      ],
      "name": "addTodo",
      "outputs": [],
      "payable": false,
      "stateMutability": "nonpayable",
      "type": "function"
    },
    {
      "constant": false,
      "inputs": [
        {
          "name": "_todoId",
          "type": "uint256"
        }
      ],
      "name": "markTodoAsCompleted",
      "outputs": [],
      "payable": false,
      "stateMutability": "nonpayable",
      "type": "function"
    }
  ],
  "bytecode": "0x6060604052341561000f57600080fd5b6107938061001e6000396000f30060606040526004361061006d576000357c0100000000000000000000000000000000000000000000000000000000900463ffffffff168063332494a614610072578063428c18891461009b578063a747491814610145578063aaed706a14610192578063da2f6460146101b5575b600080fd5b341561007d57600080fd5b6100856101dc565b6040518082815260200191505060405180910390f35b34156100a657600080fd5b6100db600480803573ffffffffffffffffffffffffffffffffffffffff169060200190919080359060200190919050506101e1565b6040518086815260200185600019166000191681526020018473ffffffffffffffffffffffffffffffffffffffff1673ffffffffffffffffffffffffffffffffffffffff168152602001831515151581526020018281526020019550505050505060405180910390f35b341561015057600080fd5b61017c600480803573ffffffffffffffffffffffffffffffffffffffff16906020019091905050610256565b6040518082815260200191505060405180910390f35b341561019d57600080fd5b6101b3600480803590602001909190505061026e565b005b34156101c057600080fd5b6101da600480803560001916906020019091905050610405565b005b606481565b6000602052816000526040600020816064811015156101fc57fe5b60040201600091509150508060000154908060010154908060020160009054906101000a900473ffffffffffffffffffffffffffffffffffffffff16908060020160149054906101000a900460ff16908060030154905085565b60016020528060005260406000206000915090505481565b6000803373ffffffffffffffffffffffffffffffffffffffff1673ffffffffffffffffffffffffffffffffffffffff168152602001908152602001600020816064811015156102b957fe5b6004020160020160009054906101000a900473ffffffffffffffffffffffffffffffffffffffff168073ffffffffffffffffffffffffffffffffffffffff163373ffffffffffffffffffffffffffffffffffffffff1614151561031b57600080fd5b60648210151561032a57600080fd5b6000803373ffffffffffffffffffffffffffffffffffffffff1673ffffffffffffffffffffffffffffffffffffffff1681526020019081526020016000208260648110151561037557fe5b6004020160020160149054906101000a900460ff1615151561039657600080fd5b60016000803373ffffffffffffffffffffffffffffffffffffffff1673ffffffffffffffffffffffffffffffffffffffff168152602001908152602001600020836064811015156103e357fe5b6004020160020160146101000a81548160ff0219169083151502179055505050565b61040d61071c565b60007f01000000000000000000000000000000000000000000000000000000000000000282600060208110151561044057fe5b1a7f0100000000000000000000000000000000000000000000000000000000000000027effffffffffffffffffffffffffffffffffffffffffffffffffffffffffffff19161415151561049257600080fd5b60a060405190810160405280600160003373ffffffffffffffffffffffffffffffffffffffff1673ffffffffffffffffffffffffffffffffffffffff168152602001908152602001600020548152602001836000191681526020013373ffffffffffffffffffffffffffffffffffffffff168152602001600015158152602001428152509050806000803373ffffffffffffffffffffffffffffffffffffffff1673ffffffffffffffffffffffffffffffffffffffff168152602001908152602001600020600160003373ffffffffffffffffffffffffffffffffffffffff1673ffffffffffffffffffffffffffffffffffffffff168152602001908152602001600020546064811015156105a357fe5b60040201600082015181600001556020820151816001019060001916905560408201518160020160006101000a81548173ffffffffffffffffffffffffffffffffffffffff021916908373ffffffffffffffffffffffffffffffffffffffff16021790555060608201518160020160146101000a81548160ff021916908315150217905550608082015181600301559050506064600160003373ffffffffffffffffffffffffffffffffffffffff1673ffffffffffffffffffffffffffffffffffffffff168152602001908152602001600020541015156106c8576000600160003373ffffffffffffffffffffffffffffffffffffffff1673ffffffffffffffffffffffffffffffffffffffff16815260200190815260200160002081905550610718565b600160003373ffffffffffffffffffffffffffffffffffffffff1673ffffffffffffffffffffffffffffffffffffffff168152602001908152602001600020600081548092919060010191905055505b5050565b60a0604051908101604052806000815260200160008019168152602001600073ffffffffffffffffffffffffffffffffffffffff1681526020016000151581526020016000815250905600a165627a7a72305820d2a44478302f1fe8a71fde7e1555d90368ab0d18fe5a5a556aaf62c57ef133ad0029",
  "source": "pragma solidity 0.4.19;\r\n\r\ncontract TodoList {\r\n\tstruct Todo {\r\n\t\tuint256 id;\r\n\t\tbytes32 content;\r\n\t\taddress owner;\r\n\t\tbool isCompleted;\r\n\t\tuint256 timestamp;\r\n\t}\r\n    uint256 public constant maxAmountOfTodos = 100;\r\n\r\n\t// Owner => todos\r\n\tmapping(address => Todo[maxAmountOfTodos]) public todos;\r\n\t// Owner => last todo id\r\n\tmapping(address => uint256) public lastIds;\r\n\r\n\tmodifier onlyOwner(address _owner) {\r\n\t    require(msg.sender == _owner);\r\n\t    _;\r\n\t}\r\n\r\n    // Add a todo to the list\r\n\tfunction addTodo(bytes32 _content) public {\r\n\t\trequire(_content[0] != 0);\r\n\r\n\t\tTodo memory myNote = Todo(lastIds[msg.sender], _content, msg.sender, false, now);\r\n\t\ttodos[msg.sender][lastIds[msg.sender]] = myNote;\r\n\t\tif(lastIds[msg.sender] >= maxAmountOfTodos) lastIds[msg.sender] = 0;\r\n\t\telse lastIds[msg.sender]++;\r\n\t}\r\n\r\n    // Mark a todo as completed\r\n\tfunction markTodoAsCompleted(uint256 _todoId) public onlyOwner(todos[msg.sender][_todoId].owner) {\r\n\t    require(_todoId < maxAmountOfTodos);\r\n\t\trequire(!todos[msg.sender][_todoId].isCompleted);\r\n\r\n\t\ttodos[msg.sender][_todoId].isCompleted = true;\r\n\t}\r\n}\r\n",
  "sourcePath": "C:\\Users\\merun\\Desktop\\decentralized-todos\\contracts\\TodoList.sol",
  "compiler": {
    "name": "solc",
    "version": "0.4.19+commit.c4cbbb05.Emscripten.clang"
  },
  "schemaVersion": "2.0.0",
  "updatedAt": "2018-03-02T12:07:14.400Z"
}